{
  "_format": "hh-sol-artifact-1",
  "contractName": "SoulBoundToken",
  "sourceName": "contracts/SoulBoundToken.sol",
  "abi": [
    {
      "inputs": [],
      "stateMutability": "nonpayable",
      "type": "constructor"
    },
    {
      "anonymous": false,
      "inputs": [
        {
          "indexed": true,
          "internalType": "address",
          "name": "owner",
          "type": "address"
        },
        {
          "indexed": true,
          "internalType": "address",
          "name": "approved",
          "type": "address"
        },
        {
          "indexed": true,
          "internalType": "uint256",
          "name": "tokenId",
          "type": "uint256"
        }
      ],
      "name": "Approval",
      "type": "event"
    },
    {
      "anonymous": false,
      "inputs": [
        {
          "indexed": true,
          "internalType": "address",
          "name": "owner",
          "type": "address"
        },
        {
          "indexed": true,
          "internalType": "address",
          "name": "operator",
          "type": "address"
        },
        {
          "indexed": false,
          "internalType": "bool",
          "name": "approved",
          "type": "bool"
        }
      ],
      "name": "ApprovalForAll",
      "type": "event"
    },
    {
      "anonymous": false,
      "inputs": [
        {
          "indexed": true,
          "internalType": "address",
          "name": "previousOwner",
          "type": "address"
        },
        {
          "indexed": true,
          "internalType": "address",
          "name": "newOwner",
          "type": "address"
        }
      ],
      "name": "OwnershipTransferred",
      "type": "event"
    },
    {
      "anonymous": false,
      "inputs": [
        {
          "indexed": true,
          "internalType": "address",
          "name": "from",
          "type": "address"
        },
        {
          "indexed": true,
          "internalType": "address",
          "name": "to",
          "type": "address"
        },
        {
          "indexed": true,
          "internalType": "uint256",
          "name": "tokenId",
          "type": "uint256"
        }
      ],
      "name": "Transfer",
      "type": "event"
    },
    {
      "inputs": [
        {
          "internalType": "address",
          "name": "",
          "type": "address"
        },
        {
          "internalType": "uint256",
          "name": "",
          "type": "uint256"
        }
      ],
      "name": "approve",
      "outputs": [],
      "stateMutability": "nonpayable",
      "type": "function"
    },
    {
      "inputs": [
        {
          "internalType": "address",
          "name": "owner",
          "type": "address"
        }
      ],
      "name": "balanceOf",
      "outputs": [
        {
          "internalType": "uint256",
          "name": "",
          "type": "uint256"
        }
      ],
      "stateMutability": "view",
      "type": "function"
    },
    {
      "inputs": [
        {
          "internalType": "uint256",
          "name": "tokenId",
          "type": "uint256"
        }
      ],
      "name": "getApproved",
      "outputs": [
        {
          "internalType": "address",
          "name": "",
          "type": "address"
        }
      ],
      "stateMutability": "view",
      "type": "function"
    },
    {
      "inputs": [
        {
          "internalType": "address",
          "name": "owner",
          "type": "address"
        },
        {
          "internalType": "address",
          "name": "operator",
          "type": "address"
        }
      ],
      "name": "isApprovedForAll",
      "outputs": [
        {
          "internalType": "bool",
          "name": "",
          "type": "bool"
        }
      ],
      "stateMutability": "view",
      "type": "function"
    },
    {
      "inputs": [
        {
          "internalType": "address",
          "name": "to",
          "type": "address"
        },
        {
          "internalType": "uint256",
          "name": "tokenId",
          "type": "uint256"
        }
      ],
      "name": "mint",
      "outputs": [],
      "stateMutability": "nonpayable",
      "type": "function"
    },
    {
      "inputs": [],
      "name": "name",
      "outputs": [
        {
          "internalType": "string",
          "name": "",
          "type": "string"
        }
      ],
      "stateMutability": "view",
      "type": "function"
    },
    {
      "inputs": [],
      "name": "owner",
      "outputs": [
        {
          "internalType": "address",
          "name": "",
          "type": "address"
        }
      ],
      "stateMutability": "view",
      "type": "function"
    },
    {
      "inputs": [
        {
          "internalType": "uint256",
          "name": "tokenId",
          "type": "uint256"
        }
      ],
      "name": "ownerOf",
      "outputs": [
        {
          "internalType": "address",
          "name": "",
          "type": "address"
        }
      ],
      "stateMutability": "view",
      "type": "function"
    },
    {
      "inputs": [],
      "name": "renounceOwnership",
      "outputs": [],
      "stateMutability": "nonpayable",
      "type": "function"
    },
    {
      "inputs": [
        {
          "internalType": "address",
          "name": "from",
          "type": "address"
        },
        {
          "internalType": "address",
          "name": "to",
          "type": "address"
        },
        {
          "internalType": "uint256",
          "name": "tokenId",
          "type": "uint256"
        }
      ],
      "name": "safeTransferFrom",
      "outputs": [],
      "stateMutability": "nonpayable",
      "type": "function"
    },
    {
      "inputs": [
        {
          "internalType": "address",
          "name": "from",
          "type": "address"
        },
        {
          "internalType": "address",
          "name": "to",
          "type": "address"
        },
        {
          "internalType": "uint256",
          "name": "tokenId",
          "type": "uint256"
        },
        {
          "internalType": "bytes",
          "name": "data",
          "type": "bytes"
        }
      ],
      "name": "safeTransferFrom",
      "outputs": [],
      "stateMutability": "nonpayable",
      "type": "function"
    },
    {
      "inputs": [
        {
          "internalType": "address",
          "name": "",
          "type": "address"
        },
        {
          "internalType": "bool",
          "name": "",
          "type": "bool"
        }
      ],
      "name": "setApprovalForAll",
      "outputs": [],
      "stateMutability": "nonpayable",
      "type": "function"
    },
    {
      "inputs": [
        {
          "internalType": "bytes4",
          "name": "interfaceId",
          "type": "bytes4"
        }
      ],
      "name": "supportsInterface",
      "outputs": [
        {
          "internalType": "bool",
          "name": "",
          "type": "bool"
        }
      ],
      "stateMutability": "view",
      "type": "function"
    },
    {
      "inputs": [],
      "name": "symbol",
      "outputs": [
        {
          "internalType": "string",
          "name": "",
          "type": "string"
        }
      ],
      "stateMutability": "view",
      "type": "function"
    },
    {
      "inputs": [
        {
          "internalType": "uint256",
          "name": "tokenId",
          "type": "uint256"
        }
      ],
      "name": "tokenURI",
      "outputs": [
        {
          "internalType": "string",
          "name": "",
          "type": "string"
        }
      ],
      "stateMutability": "view",
      "type": "function"
    },
    {
      "inputs": [
        {
          "internalType": "address",
          "name": "from",
          "type": "address"
        },
        {
          "internalType": "address",
          "name": "to",
          "type": "address"
        },
        {
          "internalType": "uint256",
          "name": "tokenId",
          "type": "uint256"
        }
      ],
      "name": "transferFrom",
      "outputs": [],
      "stateMutability": "nonpayable",
      "type": "function"
    },
    {
      "inputs": [
        {
          "internalType": "address",
          "name": "newOwner",
          "type": "address"
        }
      ],
      "name": "transferOwnership",
      "outputs": [],
      "stateMutability": "nonpayable",
      "type": "function"
    }
  ],
  "bytecode": "0x60806040523480156200001157600080fd5b506040518060400160405280600e81526020017f536f756c426f756e64546f6b656e0000000000000000000000000000000000008152506040518060400160405280600381526020017f5342540000000000000000000000000000000000000000000000000000000000815250816000908051906020019062000096929190620001a6565b508060019080519060200190620000af929190620001a6565b505050620000d2620000c6620000d860201b60201c565b620000e060201b60201c565b620002bb565b600033905090565b6000600660009054906101000a900473ffffffffffffffffffffffffffffffffffffffff16905081600660006101000a81548173ffffffffffffffffffffffffffffffffffffffff021916908373ffffffffffffffffffffffffffffffffffffffff1602179055508173ffffffffffffffffffffffffffffffffffffffff168173ffffffffffffffffffffffffffffffffffffffff167f8be0079c531659141344cd1fd0a4f28419497f9722a3daafe3b4186f6b6457e060405160405180910390a35050565b828054620001b49062000256565b90600052602060002090601f016020900481019282620001d8576000855562000224565b82601f10620001f357805160ff191683800117855562000224565b8280016001018555821562000224579182015b828111156200022357825182559160200191906001019062000206565b5b50905062000233919062000237565b5090565b5b808211156200025257600081600090555060010162000238565b5090565b600060028204905060018216806200026f57607f821691505b602082108114156200028657620002856200028c565b5b50919050565b7f4e487b7100000000000000000000000000000000000000000000000000000000600052602260045260246000fd5b6126f480620002cb6000396000f3fe608060405234801561001057600080fd5b506004361061010b5760003560e01c806370a08231116100a2578063a22cb46511610071578063a22cb465146102a4578063b88d4fde146102c0578063c87b56dd146102dc578063e985e9c51461030c578063f2fde38b1461033c5761010b565b806370a082311461022e578063715018a61461025e5780638da5cb5b1461026857806395d89b41146102865761010b565b806323b872dd116100de57806323b872dd146101aa57806340c10f19146101c657806342842e0e146101e25780636352211e146101fe5761010b565b806301ffc9a71461011057806306fdde0314610140578063081812fc1461015e578063095ea7b31461018e575b600080fd5b61012a60048036038101906101259190611b41565b610358565b6040516101379190611ede565b60405180910390f35b61014861043a565b6040516101559190611ef9565b60405180910390f35b61017860048036038101906101739190611b93565b6104cc565b6040516101859190611e77565b60405180910390f35b6101a860048036038101906101a39190611b05565b610512565b005b6101c460048036038101906101bf91906119ff565b61054d565b005b6101e060048036038101906101db9190611b05565b6105ad565b005b6101fc60048036038101906101f791906119ff565b6105c3565b005b61021860048036038101906102139190611b93565b6105e3565b6040516102259190611e77565b60405180910390f35b6102486004803603810190610243919061199a565b61066a565b60405161025591906120bb565b60405180910390f35b610266610722565b005b610270610736565b60405161027d9190611e77565b60405180910390f35b61028e610760565b60405161029b9190611ef9565b60405180910390f35b6102be60048036038101906102b99190611ac9565b6107f2565b005b6102da60048036038101906102d59190611a4e565b61082d565b005b6102f660048036038101906102f19190611b93565b61088f565b6040516103039190611ef9565b60405180910390f35b610326600480360381019061032191906119c3565b6108f7565b6040516103339190611ede565b60405180910390f35b6103566004803603810190610351919061199a565b61098b565b005b60007f80ac58cd000000000000000000000000000000000000000000000000000000007bffffffffffffffffffffffffffffffffffffffffffffffffffffffff1916827bffffffffffffffffffffffffffffffffffffffffffffffffffffffff1916148061042357507f5b5e139f000000000000000000000000000000000000000000000000000000007bffffffffffffffffffffffffffffffffffffffffffffffffffffffff1916827bffffffffffffffffffffffffffffffffffffffffffffffffffffffff1916145b80610433575061043282610a0f565b5b9050919050565b60606000805461044990612225565b80601f016020809104026020016040519081016040528092919081815260200182805461047590612225565b80156104c25780601f10610497576101008083540402835291602001916104c2565b820191906000526020600020905b8154815290600101906020018083116104a557829003601f168201915b5050505050905090565b60006104d782610a79565b6004600083815260200190815260200160002060009054906101000a900473ffffffffffffffffffffffffffffffffffffffff169050919050565b6040517f08c379a000000000000000000000000000000000000000000000000000000000815260040161054490611f7b565b60405180910390fd5b61055e610558610ac4565b82610acc565b61059d576040517f08c379a000000000000000000000000000000000000000000000000000000000815260040161059490611f1b565b60405180910390fd5b6105a8838383610b61565b505050565b6105b5610e5b565b6105bf8282610ed9565b5050565b6105de8383836040518060200160405280600081525061082d565b505050565b6000806105ef83610ef7565b9050600073ffffffffffffffffffffffffffffffffffffffff168173ffffffffffffffffffffffffffffffffffffffff161415610661576040517f08c379a00000000000000000000000000000000000000000000000000000000081526004016106589061207b565b60405180910390fd5b80915050919050565b60008073ffffffffffffffffffffffffffffffffffffffff168273ffffffffffffffffffffffffffffffffffffffff1614156106db576040517f08c379a00000000000000000000000000000000000000000000000000000000081526004016106d290611ffb565b60405180910390fd5b600360008373ffffffffffffffffffffffffffffffffffffffff1673ffffffffffffffffffffffffffffffffffffffff168152602001908152602001600020549050919050565b61072a610e5b565b6107346000610f34565b565b6000600660009054906101000a900473ffffffffffffffffffffffffffffffffffffffff16905090565b60606001805461076f90612225565b80601f016020809104026020016040519081016040528092919081815260200182805461079b90612225565b80156107e85780601f106107bd576101008083540402835291602001916107e8565b820191906000526020600020905b8154815290600101906020018083116107cb57829003601f168201915b5050505050905090565b6040517f08c379a00000000000000000000000000000000000000000000000000000000081526004016108249061203b565b60405180910390fd5b61083e610838610ac4565b83610acc565b61087d576040517f08c379a000000000000000000000000000000000000000000000000000000000815260040161087490611f1b565b60405180910390fd5b61088984848484610ffa565b50505050565b606061089a82610a79565b60006108a4611056565b905060008151116108c457604051806020016040528060008152506108ef565b806108ce8461106d565b6040516020016108df929190611e53565b6040516020818303038152906040525b915050919050565b6000600560008473ffffffffffffffffffffffffffffffffffffffff1673ffffffffffffffffffffffffffffffffffffffff16815260200190815260200160002060008373ffffffffffffffffffffffffffffffffffffffff1673ffffffffffffffffffffffffffffffffffffffff16815260200190815260200160002060009054906101000a900460ff16905092915050565b610993610e5b565b600073ffffffffffffffffffffffffffffffffffffffff168173ffffffffffffffffffffffffffffffffffffffff161415610a03576040517f08c379a00000000000000000000000000000000000000000000000000000000081526004016109fa90611f5b565b60405180910390fd5b610a0c81610f34565b50565b60007f01ffc9a7000000000000000000000000000000000000000000000000000000007bffffffffffffffffffffffffffffffffffffffffffffffffffffffff1916827bffffffffffffffffffffffffffffffffffffffffffffffffffffffff1916149050919050565b610a8281611191565b610ac1576040517f08c379a0000000000000000000000000000000000000000000000000000000008152600401610ab89061207b565b60405180910390fd5b50565b600033905090565b600080610ad8836105e3565b90508073ffffffffffffffffffffffffffffffffffffffff168473ffffffffffffffffffffffffffffffffffffffff161480610b1a5750610b1981856108f7565b5b80610b5857508373ffffffffffffffffffffffffffffffffffffffff16610b40846104cc565b73ffffffffffffffffffffffffffffffffffffffff16145b91505092915050565b8273ffffffffffffffffffffffffffffffffffffffff16610b81826105e3565b73ffffffffffffffffffffffffffffffffffffffff1614610bd7576040517f08c379a0000000000000000000000000000000000000000000000000000000008152600401610bce90611f9b565b60405180910390fd5b600073ffffffffffffffffffffffffffffffffffffffff168273ffffffffffffffffffffffffffffffffffffffff161415610c47576040517f08c379a0000000000000000000000000000000000000000000000000000000008152600401610c3e90611fdb565b60405180910390fd5b610c5483838360016111d2565b8273ffffffffffffffffffffffffffffffffffffffff16610c74826105e3565b73ffffffffffffffffffffffffffffffffffffffff1614610cca576040517f08c379a0000000000000000000000000000000000000000000000000000000008152600401610cc190611f9b565b60405180910390fd5b6004600082815260200190815260200160002060006101000a81549073ffffffffffffffffffffffffffffffffffffffff02191690556001600360008573ffffffffffffffffffffffffffffffffffffffff1673ffffffffffffffffffffffffffffffffffffffff168152602001908152602001600020600082825403925050819055506001600360008473ffffffffffffffffffffffffffffffffffffffff1673ffffffffffffffffffffffffffffffffffffffff16815260200190815260200160002060008282540192505081905550816002600083815260200190815260200160002060006101000a81548173ffffffffffffffffffffffffffffffffffffffff021916908373ffffffffffffffffffffffffffffffffffffffff160217905550808273ffffffffffffffffffffffffffffffffffffffff168473ffffffffffffffffffffffffffffffffffffffff167fddf252ad1be2c89b69c2b068fc378daa952ba7f163c4a11628f55a4df523b3ef60405160405180910390a4610e568383836001611253565b505050565b610e63610ac4565b73ffffffffffffffffffffffffffffffffffffffff16610e81610736565b73ffffffffffffffffffffffffffffffffffffffff1614610ed7576040517f08c379a0000000000000000000000000000000000000000000000000000000008152600401610ece9061205b565b60405180910390fd5b565b610ef3828260405180602001604052806000815250611259565b5050565b60006002600083815260200190815260200160002060009054906101000a900473ffffffffffffffffffffffffffffffffffffffff169050919050565b6000600660009054906101000a900473ffffffffffffffffffffffffffffffffffffffff16905081600660006101000a81548173ffffffffffffffffffffffffffffffffffffffff021916908373ffffffffffffffffffffffffffffffffffffffff1602179055508173ffffffffffffffffffffffffffffffffffffffff168173ffffffffffffffffffffffffffffffffffffffff167f8be0079c531659141344cd1fd0a4f28419497f9722a3daafe3b4186f6b6457e060405160405180910390a35050565b611005848484610b61565b611011848484846112b4565b611050576040517f08c379a000000000000000000000000000000000000000000000000000000000815260040161104790611f3b565b60405180910390fd5b50505050565b606060405180602001604052806000815250905090565b60606000600161107c8461144b565b01905060008167ffffffffffffffff8111156110c1577f4e487b7100000000000000000000000000000000000000000000000000000000600052604160045260246000fd5b6040519080825280601f01601f1916602001820160405280156110f35781602001600182028036833780820191505090505b509050600082602001820190505b600115611186578080600190039150507f3031323334353637383961626364656600000000000000000000000000000000600a86061a8153600a8581611170577f4e487b7100000000000000000000000000000000000000000000000000000000600052601260045260246000fd5b049450600085141561118157611186565b611101565b819350505050919050565b60008073ffffffffffffffffffffffffffffffffffffffff166111b383610ef7565b73ffffffffffffffffffffffffffffffffffffffff1614159050919050565b600073ffffffffffffffffffffffffffffffffffffffff168473ffffffffffffffffffffffffffffffffffffffff1614611241576040517f08c379a00000000000000000000000000000000000000000000000000000000081526004016112389061209b565b60405180910390fd5b61124d84848484611682565b50505050565b50505050565b6112638383611688565b61127060008484846112b4565b6112af576040517f08c379a00000000000000000000000000000000000000000000000000000000081526004016112a690611f3b565b60405180910390fd5b505050565b60006112d58473ffffffffffffffffffffffffffffffffffffffff166118a6565b1561143e578373ffffffffffffffffffffffffffffffffffffffff1663150b7a026112fe610ac4565b8786866040518563ffffffff1660e01b81526004016113209493929190611e92565b602060405180830381600087803b15801561133a57600080fd5b505af192505050801561136b57506040513d601f19601f820116820180604052508101906113689190611b6a565b60015b6113ee573d806000811461139b576040519150601f19603f3d011682016040523d82523d6000602084013e6113a0565b606091505b506000815114156113e6576040517f08c379a00000000000000000000000000000000000000000000000000000000081526004016113dd90611f3b565b60405180910390fd5b805181602001fd5b63150b7a0260e01b7bffffffffffffffffffffffffffffffffffffffffffffffffffffffff1916817bffffffffffffffffffffffffffffffffffffffffffffffffffffffff191614915050611443565b600190505b949350505050565b600080600090507a184f03e93ff9f4daa797ed6e38ed64bf6a1f01000000000000000083106114cf577a184f03e93ff9f4daa797ed6e38ed64bf6a1f01000000000000000083816114c5577f4e487b7100000000000000000000000000000000000000000000000000000000600052601260045260246000fd5b0492506040810190505b6d04ee2d6d415b85acef81000000008310611532576d04ee2d6d415b85acef81000000008381611528577f4e487b7100000000000000000000000000000000000000000000000000000000600052601260045260246000fd5b0492506020810190505b662386f26fc10000831061158757662386f26fc10000838161157d577f4e487b7100000000000000000000000000000000000000000000000000000000600052601260045260246000fd5b0492506010810190505b6305f5e10083106115d6576305f5e10083816115cc577f4e487b7100000000000000000000000000000000000000000000000000000000600052601260045260246000fd5b0492506008810190505b6127108310611621576127108381611617577f4e487b7100000000000000000000000000000000000000000000000000000000600052601260045260246000fd5b0492506004810190505b6064831061166a5760648381611660577f4e487b7100000000000000000000000000000000000000000000000000000000600052601260045260246000fd5b0492506002810190505b600a8310611679576001810190505b80915050919050565b50505050565b600073ffffffffffffffffffffffffffffffffffffffff168273ffffffffffffffffffffffffffffffffffffffff1614156116f8576040517f08c379a00000000000000000000000000000000000000000000000000000000081526004016116ef9061201b565b60405180910390fd5b61170181611191565b15611741576040517f08c379a000000000000000000000000000000000000000000000000000000000815260040161173890611fbb565b60405180910390fd5b61174f6000838360016111d2565b61175881611191565b15611798576040517f08c379a000000000000000000000000000000000000000000000000000000000815260040161178f90611fbb565b60405180910390fd5b6001600360008473ffffffffffffffffffffffffffffffffffffffff1673ffffffffffffffffffffffffffffffffffffffff16815260200190815260200160002060008282540192505081905550816002600083815260200190815260200160002060006101000a81548173ffffffffffffffffffffffffffffffffffffffff021916908373ffffffffffffffffffffffffffffffffffffffff160217905550808273ffffffffffffffffffffffffffffffffffffffff16600073ffffffffffffffffffffffffffffffffffffffff167fddf252ad1be2c89b69c2b068fc378daa952ba7f163c4a11628f55a4df523b3ef60405160405180910390a46118a2600083836001611253565b5050565b6000808273ffffffffffffffffffffffffffffffffffffffff163b119050919050565b60006118dc6118d7846120fb565b6120d6565b9050828152602081018484840111156118f457600080fd5b6118ff8482856121e3565b509392505050565b60008135905061191681612662565b92915050565b60008135905061192b81612679565b92915050565b60008135905061194081612690565b92915050565b60008151905061195581612690565b92915050565b600082601f83011261196c57600080fd5b813561197c8482602086016118c9565b91505092915050565b600081359050611994816126a7565b92915050565b6000602082840312156119ac57600080fd5b60006119ba84828501611907565b91505092915050565b600080604083850312156119d657600080fd5b60006119e485828601611907565b92505060206119f585828601611907565b9150509250929050565b600080600060608486031215611a1457600080fd5b6000611a2286828701611907565b9350506020611a3386828701611907565b9250506040611a4486828701611985565b9150509250925092565b60008060008060808587031215611a6457600080fd5b6000611a7287828801611907565b9450506020611a8387828801611907565b9350506040611a9487828801611985565b925050606085013567ffffffffffffffff811115611ab157600080fd5b611abd8782880161195b565b91505092959194509250565b60008060408385031215611adc57600080fd5b6000611aea85828601611907565b9250506020611afb8582860161191c565b9150509250929050565b60008060408385031215611b1857600080fd5b6000611b2685828601611907565b9250506020611b3785828601611985565b9150509250929050565b600060208284031215611b5357600080fd5b6000611b6184828501611931565b91505092915050565b600060208284031215611b7c57600080fd5b6000611b8a84828501611946565b91505092915050565b600060208284031215611ba557600080fd5b6000611bb384828501611985565b91505092915050565b611bc58161216f565b82525050565b611bd481612181565b82525050565b6000611be58261212c565b611bef8185612142565b9350611bff8185602086016121f2565b611c08816122e6565b840191505092915050565b6000611c1e82612137565b611c288185612153565b9350611c388185602086016121f2565b611c41816122e6565b840191505092915050565b6000611c5782612137565b611c618185612164565b9350611c718185602086016121f2565b80840191505092915050565b6000611c8a602d83612153565b9150611c95826122f7565b604082019050919050565b6000611cad603283612153565b9150611cb882612346565b604082019050919050565b6000611cd0602683612153565b9150611cdb82612395565b604082019050919050565b6000611cf3602383612153565b9150611cfe826123e4565b604082019050919050565b6000611d16602583612153565b9150611d2182612433565b604082019050919050565b6000611d39601c83612153565b9150611d4482612482565b602082019050919050565b6000611d5c602483612153565b9150611d67826124ab565b604082019050919050565b6000611d7f602983612153565b9150611d8a826124fa565b604082019050919050565b6000611da2602083612153565b9150611dad82612549565b602082019050919050565b6000611dc5602c83612153565b9150611dd082612572565b604082019050919050565b6000611de8602083612153565b9150611df3826125c1565b602082019050919050565b6000611e0b601883612153565b9150611e16826125ea565b602082019050919050565b6000611e2e602583612153565b9150611e3982612613565b604082019050919050565b611e4d816121d9565b82525050565b6000611e5f8285611c4c565b9150611e6b8284611c4c565b91508190509392505050565b6000602082019050611e8c6000830184611bbc565b92915050565b6000608082019050611ea76000830187611bbc565b611eb46020830186611bbc565b611ec16040830185611e44565b8181036060830152611ed38184611bda565b905095945050505050565b6000602082019050611ef36000830184611bcb565b92915050565b60006020820190508181036000830152611f138184611c13565b905092915050565b60006020820190508181036000830152611f3481611c7d565b9050919050565b60006020820190508181036000830152611f5481611ca0565b9050919050565b60006020820190508181036000830152611f7481611cc3565b9050919050565b60006020820190508181036000830152611f9481611ce6565b9050919050565b60006020820190508181036000830152611fb481611d09565b9050919050565b60006020820190508181036000830152611fd481611d2c565b9050919050565b60006020820190508181036000830152611ff481611d4f565b9050919050565b6000602082019050818103600083015261201481611d72565b9050919050565b6000602082019050818103600083015261203481611d95565b9050919050565b6000602082019050818103600083015261205481611db8565b9050919050565b6000602082019050818103600083015261207481611ddb565b9050919050565b6000602082019050818103600083015261209481611dfe565b9050919050565b600060208201905081810360008301526120b481611e21565b9050919050565b60006020820190506120d06000830184611e44565b92915050565b60006120e06120f1565b90506120ec8282612257565b919050565b6000604051905090565b600067ffffffffffffffff821115612116576121156122b7565b5b61211f826122e6565b9050602081019050919050565b600081519050919050565b600081519050919050565b600082825260208201905092915050565b600082825260208201905092915050565b600081905092915050565b600061217a826121b9565b9050919050565b60008115159050919050565b60007fffffffff0000000000000000000000000000000000000000000000000000000082169050919050565b600073ffffffffffffffffffffffffffffffffffffffff82169050919050565b6000819050919050565b82818337600083830152505050565b60005b838110156122105780820151818401526020810190506121f5565b8381111561221f576000848401525b50505050565b6000600282049050600182168061223d57607f821691505b6020821081141561225157612250612288565b5b50919050565b612260826122e6565b810181811067ffffffffffffffff8211171561227f5761227e6122b7565b5b80604052505050565b7f4e487b7100000000000000000000000000000000000000000000000000000000600052602260045260246000fd5b7f4e487b7100000000000000000000000000000000000000000000000000000000600052604160045260246000fd5b6000601f19601f8301169050919050565b7f4552433732313a2063616c6c6572206973206e6f7420746f6b656e206f776e6560008201527f72206f7220617070726f76656400000000000000000000000000000000000000602082015250565b7f4552433732313a207472616e7366657220746f206e6f6e20455243373231526560008201527f63656976657220696d706c656d656e7465720000000000000000000000000000602082015250565b7f4f776e61626c653a206e6577206f776e657220697320746865207a65726f206160008201527f6464726573730000000000000000000000000000000000000000000000000000602082015250565b7f536f756c626f756e6420746f6b656e732063616e6e6f7420626520617070726f60008201527f7665640000000000000000000000000000000000000000000000000000000000602082015250565b7f4552433732313a207472616e736665722066726f6d20696e636f72726563742060008201527f6f776e6572000000000000000000000000000000000000000000000000000000602082015250565b7f4552433732313a20746f6b656e20616c7265616479206d696e74656400000000600082015250565b7f4552433732313a207472616e7366657220746f20746865207a65726f2061646460008201527f7265737300000000000000000000000000000000000000000000000000000000602082015250565b7f4552433732313a2061646472657373207a65726f206973206e6f74206120766160008201527f6c6964206f776e65720000000000000000000000000000000000000000000000602082015250565b7f4552433732313a206d696e7420746f20746865207a65726f2061646472657373600082015250565b7f536f756c626f756e6420746f6b656e732063616e6e6f7420736574206170707260008201527f6f76616c20666f7220616c6c0000000000000000000000000000000000000000602082015250565b7f4f776e61626c653a2063616c6c6572206973206e6f7420746865206f776e6572600082015250565b7f4552433732313a20696e76616c696420746f6b656e2049440000000000000000600082015250565b7f536f756c626f756e6420746f6b656e7320617265206e6f6e2d7472616e73666560008201527f7261626c65000000000000000000000000000000000000000000000000000000602082015250565b61266b8161216f565b811461267657600080fd5b50565b61268281612181565b811461268d57600080fd5b50565b6126998161218d565b81146126a457600080fd5b50565b6126b0816121d9565b81146126bb57600080fd5b5056fea2646970667358221220779eeaf2288eeb38b8f28b53998a77f0f8e244706cf30df26e5ad49e6223822b64736f6c63430008010033",
  "linkReferences": {},
  "deployedLinkReferences": {}
}