{
  "_format": "hh-sol-artifact-1",
  "contractName": "DeChange",
  "sourceName": "contracts/DeChange.sol",
  "abi": [
    {
      "inputs": [
        {
          "internalType": "address",
          "name": "_smartWallet",
          "type": "address"
        },
        {
          "internalType": "address",
          "name": "_baseNames",
          "type": "address"
        },
        {
          "internalType": "address",
          "name": "_sbtAddress",
          "type": "address"
        }
      ],
      "stateMutability": "nonpayable",
      "type": "constructor"
    },
    {
      "anonymous": false,
      "inputs": [
        {
          "indexed": true,
          "internalType": "address",
          "name": "user",
          "type": "address"
        },
        {
          "indexed": false,
          "internalType": "uint256",
          "name": "courseId",
          "type": "uint256"
        }
      ],
      "name": "CourseEnrolled",
      "type": "event"
    },
    {
      "anonymous": false,
      "inputs": [
        {
          "indexed": true,
          "internalType": "address",
          "name": "user",
          "type": "address"
        },
        {
          "indexed": false,
          "internalType": "uint256",
          "name": "questId",
          "type": "uint256"
        },
        {
          "indexed": false,
          "internalType": "uint256",
          "name": "xpReward",
          "type": "uint256"
        }
      ],
      "name": "QuestCompleted",
      "type": "event"
    },
    {
      "anonymous": false,
      "inputs": [
        {
          "indexed": true,
          "internalType": "address",
          "name": "user",
          "type": "address"
        },
        {
          "indexed": false,
          "internalType": "string",
          "name": "username",
          "type": "string"
        }
      ],
      "name": "UserRegistered",
      "type": "event"
    },
    {
      "inputs": [],
      "name": "baseNames",
      "outputs": [
        {
          "internalType": "contract IBaseNames",
          "name": "",
          "type": "address"
        }
      ],
      "stateMutability": "view",
      "type": "function"
    },
    {
      "inputs": [
        {
          "internalType": "uint256",
          "name": "questId",
          "type": "uint256"
        }
      ],
      "name": "completeQuest",
      "outputs": [],
      "stateMutability": "nonpayable",
      "type": "function"
    },
    {
      "inputs": [
        {
          "internalType": "uint256",
          "name": "",
          "type": "uint256"
        }
      ],
      "name": "courses",
      "outputs": [
        {
          "internalType": "uint256",
          "name": "courseId",
          "type": "uint256"
        },
        {
          "internalType": "string",
          "name": "title",
          "type": "string"
        },
        {
          "internalType": "uint256",
          "name": "xpReward",
          "type": "uint256"
        }
      ],
      "stateMutability": "view",
      "type": "function"
    },
    {
      "inputs": [],
      "name": "owner",
      "outputs": [
        {
          "internalType": "address",
          "name": "",
          "type": "address"
        }
      ],
      "stateMutability": "view",
      "type": "function"
    },
    {
      "inputs": [
        {
          "internalType": "string",
          "name": "username",
          "type": "string"
        }
      ],
      "name": "registerUser",
      "outputs": [],
      "stateMutability": "nonpayable",
      "type": "function"
    },
    {
      "inputs": [],
      "name": "smartWallet",
      "outputs": [
        {
          "internalType": "contract ISmartWallet",
          "name": "",
          "type": "address"
        }
      ],
      "stateMutability": "view",
      "type": "function"
    },
    {
      "inputs": [],
      "name": "soulBoundToken",
      "outputs": [
        {
          "internalType": "contract ISoulBoundToken",
          "name": "",
          "type": "address"
        }
      ],
      "stateMutability": "view",
      "type": "function"
    },
    {
      "inputs": [
        {
          "internalType": "address",
          "name": "",
          "type": "address"
        },
        {
          "internalType": "uint256",
          "name": "",
          "type": "uint256"
        }
      ],
      "name": "userQuests",
      "outputs": [
        {
          "internalType": "uint256",
          "name": "questId",
          "type": "uint256"
        },
        {
          "internalType": "string",
          "name": "description",
          "type": "string"
        },
        {
          "internalType": "bool",
          "name": "completed",
          "type": "bool"
        },
        {
          "internalType": "uint256",
          "name": "xpReward",
          "type": "uint256"
        }
      ],
      "stateMutability": "view",
      "type": "function"
    },
    {
      "inputs": [
        {
          "internalType": "address",
          "name": "",
          "type": "address"
        }
      ],
      "name": "users",
      "outputs": [
        {
          "internalType": "string",
          "name": "username",
          "type": "string"
        },
        {
          "internalType": "uint256",
          "name": "performance",
          "type": "uint256"
        },
        {
          "internalType": "bool",
          "name": "registered",
          "type": "bool"
        }
      ],
      "stateMutability": "view",
      "type": "function"
    }
  ],
  "bytecode": "0x60806040523480156200001157600080fd5b506040516200170f3803806200170f83398181016040528101906200003791906200015a565b336000806101000a81548173ffffffffffffffffffffffffffffffffffffffff021916908373ffffffffffffffffffffffffffffffffffffffff16021790555082600160006101000a81548173ffffffffffffffffffffffffffffffffffffffff021916908373ffffffffffffffffffffffffffffffffffffffff16021790555081600260006101000a81548173ffffffffffffffffffffffffffffffffffffffff021916908373ffffffffffffffffffffffffffffffffffffffff16021790555080600360006101000a81548173ffffffffffffffffffffffffffffffffffffffff021916908373ffffffffffffffffffffffffffffffffffffffff160217905550505050620001fe565b6000815190506200015481620001e4565b92915050565b6000806000606084860312156200017057600080fd5b6000620001808682870162000143565b9350506020620001938682870162000143565b9250506040620001a68682870162000143565b9150509250925092565b6000620001bd82620001c4565b9050919050565b600073ffffffffffffffffffffffffffffffffffffffff82169050919050565b620001ef81620001b0565b8114620001fb57600080fd5b50565b611501806200020e6000396000f3fe608060405234801561001057600080fd5b50600436106100935760003560e01c806396f979d21161006657806396f979d21461010c5780639f4d58561461013e578063a87430ba14610171578063f01f8e07146101a3578063f4f96d29146101c157610093565b80634290ba9014610098578063528be0a9146100b6578063704f1b94146100d25780638da5cb5b146100ee575b600080fd5b6100a06101df565b6040516100ad9190610fd5565b60405180910390f35b6100d060048036038101906100cb9190610e5f565b610205565b005b6100ec60048036038101906100e79190610e1e565b61053b565b005b6100f66106cd565b6040516101039190610f84565b60405180910390f35b61012660048036038101906101219190610e5f565b6106f1565b604051610135939291906110fc565b60405180910390f35b61015860048036038101906101539190610de2565b6107a3565b60405161016894939291906110b0565b60405180910390f35b61018b60048036038101906101869190610db9565b610875565b60405161019a93929190611012565b60405180910390f35b6101ab610934565b6040516101b89190610f9f565b60405180910390f35b6101c961095a565b6040516101d69190610fba565b60405180910390f35b600360009054906101000a900473ffffffffffffffffffffffffffffffffffffffff1681565b6000600660003373ffffffffffffffffffffffffffffffffffffffff1673ffffffffffffffffffffffffffffffffffffffff168152602001908152602001600020600083815260200190815260200160002060000154141561029c576040517f08c379a000000000000000000000000000000000000000000000000000000000815260040161029390611070565b60405180910390fd5b600660003373ffffffffffffffffffffffffffffffffffffffff1673ffffffffffffffffffffffffffffffffffffffff168152602001908152602001600020600082815260200190815260200160002060020160009054906101000a900460ff161561033d576040517f08c379a000000000000000000000000000000000000000000000000000000000815260040161033490611050565b60405180910390fd5b6001600660003373ffffffffffffffffffffffffffffffffffffffff1673ffffffffffffffffffffffffffffffffffffffff168152602001908152602001600020600083815260200190815260200160002060020160006101000a81548160ff0219169083151502179055506000600660003373ffffffffffffffffffffffffffffffffffffffff1673ffffffffffffffffffffffffffffffffffffffff168152602001908152602001600020600083815260200190815260200160002060030154905080600460003373ffffffffffffffffffffffffffffffffffffffff1673ffffffffffffffffffffffffffffffffffffffff168152602001908152602001600020600101600082825461045391906111d5565b92505081905550600360009054906101000a900473ffffffffffffffffffffffffffffffffffffffff1673ffffffffffffffffffffffffffffffffffffffff1663e4486e2c336040518263ffffffff1660e01b81526004016104b59190610f84565b600060405180830381600087803b1580156104cf57600080fd5b505af11580156104e3573d6000803e3d6000fd5b505050503373ffffffffffffffffffffffffffffffffffffffff167fe0b5124b12e878158288d1002ed1fb960faff0ec1c7b3168f86d9d1afd1b0d8b838360405161052f92919061113a565b60405180910390a25050565b600460003373ffffffffffffffffffffffffffffffffffffffff1673ffffffffffffffffffffffffffffffffffffffff16815260200190815260200160002060020160009054906101000a900460ff16156105cb576040517f08c379a00000000000000000000000000000000000000000000000000000000081526004016105c290611090565b60405180910390fd5b60405180606001604052808281526020016000815260200160011515815250600460003373ffffffffffffffffffffffffffffffffffffffff1673ffffffffffffffffffffffffffffffffffffffff1681526020019081526020016000206000820151816000019080519060200190610645929190610c84565b506020820151816001015560408201518160020160006101000a81548160ff02191690831515021790555090505061067c33610980565b3373ffffffffffffffffffffffffffffffffffffffff167f48cac28ad4dc618e15f4c2dd5e97751182f166de97b25618318b2112aa951a2f826040516106c29190610ff0565b60405180910390a250565b60008054906101000a900473ffffffffffffffffffffffffffffffffffffffff1681565b600560205280600052604060002060009150905080600001549080600101805461071a90611321565b80601f016020809104026020016040519081016040528092919081815260200182805461074690611321565b80156107935780601f1061076857610100808354040283529160200191610793565b820191906000526020600020905b81548152906001019060200180831161077657829003601f168201915b5050505050908060020154905083565b6006602052816000526040600020602052806000526040600020600091509150508060000154908060010180546107d990611321565b80601f016020809104026020016040519081016040528092919081815260200182805461080590611321565b80156108525780601f1061082757610100808354040283529160200191610852565b820191906000526020600020905b81548152906001019060200180831161083557829003601f168201915b5050505050908060020160009054906101000a900460ff16908060030154905084565b600460205280600052604060002060009150905080600001805461089890611321565b80601f01602080910402602001604051908101604052809291908181526020018280546108c490611321565b80156109115780601f106108e657610100808354040283529160200191610911565b820191906000526020600020905b8154815290600101906020018083116108f457829003601f168201915b5050505050908060010154908060020160009054906101000a900460ff16905083565b600260009054906101000a900473ffffffffffffffffffffffffffffffffffffffff1681565b600160009054906101000a900473ffffffffffffffffffffffffffffffffffffffff1681565b6040518060800160405280600181526020016040518060400160405280601781526020017f436c61696d2066617563657420617420416c6368656d7900000000000000000081525081526020016000151581526020016064815250600660008373ffffffffffffffffffffffffffffffffffffffff1673ffffffffffffffffffffffffffffffffffffffff168152602001908152602001600020600060018152602001908152602001600020600082015181600001556020820151816001019080519060200190610a52929190610c84565b5060408201518160020160006101000a81548160ff021916908315150217905550606082015181600301559050506040518060800160405280600281526020016040518060400160405280601681526020017f5377617020746f6b656e7320617420556e697377617000000000000000000000815250815260200160001515815260200160c8815250600660008373ffffffffffffffffffffffffffffffffffffffff1673ffffffffffffffffffffffffffffffffffffffff168152602001908152602001600020600060028152602001908152602001600020600082015181600001556020820151816001019080519060200190610b52929190610c84565b5060408201518160020160006101000a81548160ff021916908315150217905550606082015181600301559050506040518060800160405280600381526020016040518060400160405280601781526020017f42726964676520746f6b656e7320696e746f2042617365000000000000000000815250815260200160001515815260200161012c815250600660008373ffffffffffffffffffffffffffffffffffffffff1673ffffffffffffffffffffffffffffffffffffffff168152602001908152602001600020600060038152602001908152602001600020600082015181600001556020820151816001019080519060200190610c53929190610c84565b5060408201518160020160006101000a81548160ff0219169083151502179055506060820151816003015590505050565b828054610c9090611321565b90600052602060002090601f016020900481019282610cb25760008555610cf9565b82601f10610ccb57805160ff1916838001178555610cf9565b82800160010185558215610cf9579182015b82811115610cf8578251825591602001919060010190610cdd565b5b509050610d069190610d0a565b5090565b5b80821115610d23576000816000905550600101610d0b565b5090565b6000610d3a610d3584611188565b611163565b905082815260208101848484011115610d5257600080fd5b610d5d8482856112df565b509392505050565b600081359050610d748161149d565b92915050565b600082601f830112610d8b57600080fd5b8135610d9b848260208601610d27565b91505092915050565b600081359050610db3816114b4565b92915050565b600060208284031215610dcb57600080fd5b6000610dd984828501610d65565b91505092915050565b60008060408385031215610df557600080fd5b6000610e0385828601610d65565b9250506020610e1485828601610da4565b9150509250929050565b600060208284031215610e3057600080fd5b600082013567ffffffffffffffff811115610e4a57600080fd5b610e5684828501610d7a565b91505092915050565b600060208284031215610e7157600080fd5b6000610e7f84828501610da4565b91505092915050565b610e918161122b565b82525050565b610ea08161123d565b82525050565b610eaf81611273565b82525050565b610ebe81611297565b82525050565b610ecd816112bb565b82525050565b6000610ede826111b9565b610ee881856111c4565b9350610ef88185602086016112ee565b610f0181611411565b840191505092915050565b6000610f196017836111c4565b9150610f2482611422565b602082019050919050565b6000610f3c6014836111c4565b9150610f478261144b565b602082019050919050565b6000610f5f6017836111c4565b9150610f6a82611474565b602082019050919050565b610f7e81611269565b82525050565b6000602082019050610f996000830184610e88565b92915050565b6000602082019050610fb46000830184610ea6565b92915050565b6000602082019050610fcf6000830184610eb5565b92915050565b6000602082019050610fea6000830184610ec4565b92915050565b6000602082019050818103600083015261100a8184610ed3565b905092915050565b6000606082019050818103600083015261102c8186610ed3565b905061103b6020830185610f75565b6110486040830184610e97565b949350505050565b6000602082019050818103600083015261106981610f0c565b9050919050565b6000602082019050818103600083015261108981610f2f565b9050919050565b600060208201905081810360008301526110a981610f52565b9050919050565b60006080820190506110c56000830187610f75565b81810360208301526110d78186610ed3565b90506110e66040830185610e97565b6110f36060830184610f75565b95945050505050565b60006060820190506111116000830186610f75565b81810360208301526111238185610ed3565b90506111326040830184610f75565b949350505050565b600060408201905061114f6000830185610f75565b61115c6020830184610f75565b9392505050565b600061116d61117e565b90506111798282611353565b919050565b6000604051905090565b600067ffffffffffffffff8211156111a3576111a26113e2565b5b6111ac82611411565b9050602081019050919050565b600081519050919050565b600082825260208201905092915050565b60006111e082611269565b91506111eb83611269565b9250827fffffffffffffffffffffffffffffffffffffffffffffffffffffffffffffffff038211156112205761121f611384565b5b828201905092915050565b600061123682611249565b9050919050565b60008115159050919050565b600073ffffffffffffffffffffffffffffffffffffffff82169050919050565b6000819050919050565b600061127e82611285565b9050919050565b600061129082611249565b9050919050565b60006112a2826112a9565b9050919050565b60006112b482611249565b9050919050565b60006112c6826112cd565b9050919050565b60006112d882611249565b9050919050565b82818337600083830152505050565b60005b8381101561130c5780820151818401526020810190506112f1565b8381111561131b576000848401525b50505050565b6000600282049050600182168061133957607f821691505b6020821081141561134d5761134c6113b3565b5b50919050565b61135c82611411565b810181811067ffffffffffffffff8211171561137b5761137a6113e2565b5b80604052505050565b7f4e487b7100000000000000000000000000000000000000000000000000000000600052601160045260246000fd5b7f4e487b7100000000000000000000000000000000000000000000000000000000600052602260045260246000fd5b7f4e487b7100000000000000000000000000000000000000000000000000000000600052604160045260246000fd5b6000601f19601f8301169050919050565b7f517565737420616c726561647920636f6d706c65746564000000000000000000600082015250565b7f517565737420646f6573206e6f74206578697374000000000000000000000000600082015250565b7f5573657220616c72656164792072656769737465726564000000000000000000600082015250565b6114a68161122b565b81146114b157600080fd5b50565b6114bd81611269565b81146114c857600080fd5b5056fea2646970667358221220799f39019e35f0193534d9c4ca1371dca5c1650d9273e41b982e065a76d676de64736f6c63430008010033",
  "linkReferences": {},
  "deployedLinkReferences": {}
}